{
  "_format": "hh-sol-artifact-1",
  "contractName": "PropertyRecords",
  "sourceName": "contracts/PropertyRecords.sol",
  "abi": [
    {
      "inputs": [],
      "stateMutability": "nonpayable",
      "type": "constructor"
    },
    {
      "anonymous": false,
      "inputs": [
        {
          "indexed": true,
          "internalType": "address",
          "name": "owner",
          "type": "address"
        },
        {
          "indexed": true,
          "internalType": "address",
          "name": "approved",
          "type": "address"
        },
        {
          "indexed": true,
          "internalType": "uint256",
          "name": "tokenId",
          "type": "uint256"
        }
      ],
      "name": "Approval",
      "type": "event"
    },
    {
      "anonymous": false,
      "inputs": [
        {
          "indexed": true,
          "internalType": "address",
          "name": "owner",
          "type": "address"
        },
        {
          "indexed": true,
          "internalType": "address",
          "name": "operator",
          "type": "address"
        },
        {
          "indexed": false,
          "internalType": "bool",
          "name": "approved",
          "type": "bool"
        }
      ],
      "name": "ApprovalForAll",
      "type": "event"
    },
    {
      "anonymous": false,
      "inputs": [
        {
          "indexed": true,
          "internalType": "address",
          "name": "previousOwner",
          "type": "address"
        },
        {
          "indexed": true,
          "internalType": "address",
          "name": "newOwner",
          "type": "address"
        }
      ],
      "name": "OwnershipTransferred",
      "type": "event"
    },
    {
      "anonymous": false,
      "inputs": [
        {
          "indexed": true,
          "internalType": "uint256",
          "name": "propertyId",
          "type": "uint256"
        },
        {
          "indexed": false,
          "internalType": "string",
          "name": "ownerName",
          "type": "string"
        },
        {
          "indexed": false,
          "internalType": "string",
          "name": "landLocation",
          "type": "string"
        },
        {
          "indexed": false,
          "internalType": "uint256",
          "name": "propertyValue",
          "type": "uint256"
        },
        {
          "indexed": false,
          "internalType": "uint256",
          "name": "surveyNumber",
          "type": "uint256"
        }
      ],
      "name": "PropertyRegistered",
      "type": "event"
    },
    {
      "anonymous": false,
      "inputs": [
        {
          "indexed": true,
          "internalType": "address",
          "name": "from",
          "type": "address"
        },
        {
          "indexed": true,
          "internalType": "address",
          "name": "to",
          "type": "address"
        },
        {
          "indexed": true,
          "internalType": "uint256",
          "name": "tokenId",
          "type": "uint256"
        }
      ],
      "name": "Transfer",
      "type": "event"
    },
    {
      "inputs": [
        {
          "internalType": "address",
          "name": "to",
          "type": "address"
        },
        {
          "internalType": "uint256",
          "name": "tokenId",
          "type": "uint256"
        }
      ],
      "name": "approve",
      "outputs": [],
      "stateMutability": "nonpayable",
      "type": "function"
    },
    {
      "inputs": [
        {
          "internalType": "address",
          "name": "owner",
          "type": "address"
        }
      ],
      "name": "balanceOf",
      "outputs": [
        {
          "internalType": "uint256",
          "name": "",
          "type": "uint256"
        }
      ],
      "stateMutability": "view",
      "type": "function"
    },
    {
      "inputs": [
        {
          "internalType": "uint256",
          "name": "tokenId",
          "type": "uint256"
        }
      ],
      "name": "getApproved",
      "outputs": [
        {
          "internalType": "address",
          "name": "",
          "type": "address"
        }
      ],
      "stateMutability": "view",
      "type": "function"
    },
    {
      "inputs": [
        {
          "internalType": "uint256",
          "name": "propertyId",
          "type": "uint256"
        }
      ],
      "name": "getPropertyDetails",
      "outputs": [
        {
          "internalType": "string",
          "name": "ownerName",
          "type": "string"
        },
        {
          "internalType": "address",
          "name": "ownerWalletAddress",
          "type": "address"
        },
        {
          "internalType": "string",
          "name": "landLocation",
          "type": "string"
        },
        {
          "internalType": "uint256",
          "name": "propertyValue",
          "type": "uint256"
        },
        {
          "internalType": "uint256",
          "name": "surveyNumber",
          "type": "uint256"
        },
        {
          "internalType": "string",
          "name": "image",
          "type": "string"
        }
      ],
      "stateMutability": "view",
      "type": "function"
    },
    {
      "inputs": [
        {
          "internalType": "address",
          "name": "owner",
          "type": "address"
        },
        {
          "internalType": "address",
          "name": "operator",
          "type": "address"
        }
      ],
      "name": "isApprovedForAll",
      "outputs": [
        {
          "internalType": "bool",
          "name": "",
          "type": "bool"
        }
      ],
      "stateMutability": "view",
      "type": "function"
    },
    {
      "inputs": [],
      "name": "name",
      "outputs": [
        {
          "internalType": "string",
          "name": "",
          "type": "string"
        }
      ],
      "stateMutability": "view",
      "type": "function"
    },
    {
      "inputs": [],
      "name": "owner",
      "outputs": [
        {
          "internalType": "address",
          "name": "",
          "type": "address"
        }
      ],
      "stateMutability": "view",
      "type": "function"
    },
    {
      "inputs": [
        {
          "internalType": "uint256",
          "name": "tokenId",
          "type": "uint256"
        }
      ],
      "name": "ownerOf",
      "outputs": [
        {
          "internalType": "address",
          "name": "",
          "type": "address"
        }
      ],
      "stateMutability": "view",
      "type": "function"
    },
    {
      "inputs": [
        {
          "internalType": "uint256",
          "name": "",
          "type": "uint256"
        }
      ],
      "name": "properties",
      "outputs": [
        {
          "internalType": "string",
          "name": "ownerName",
          "type": "string"
        },
        {
          "internalType": "address",
          "name": "ownerWalletAddress",
          "type": "address"
        },
        {
          "internalType": "string",
          "name": "landLocation",
          "type": "string"
        },
        {
          "internalType": "uint256",
          "name": "propertyValue",
          "type": "uint256"
        },
        {
          "internalType": "uint256",
          "name": "surveyNumber",
          "type": "uint256"
        },
        {
          "internalType": "string",
          "name": "image",
          "type": "string"
        }
      ],
      "stateMutability": "view",
      "type": "function"
    },
    {
      "inputs": [
        {
          "internalType": "string",
          "name": "ownerName",
          "type": "string"
        },
        {
          "internalType": "address",
          "name": "ownerWalletAddress",
          "type": "address"
        },
        {
          "internalType": "string",
          "name": "landLocation",
          "type": "string"
        },
        {
          "internalType": "uint256",
          "name": "propertyValue",
          "type": "uint256"
        },
        {
          "internalType": "uint256",
          "name": "surveyNumber",
          "type": "uint256"
        },
        {
          "internalType": "string",
          "name": "image",
          "type": "string"
        }
      ],
      "name": "registerProperty",
      "outputs": [
        {
          "internalType": "uint256",
          "name": "",
          "type": "uint256"
        }
      ],
      "stateMutability": "nonpayable",
      "type": "function"
    },
    {
      "inputs": [],
      "name": "renounceOwnership",
      "outputs": [],
      "stateMutability": "nonpayable",
      "type": "function"
    },
    {
      "inputs": [
        {
          "internalType": "address",
          "name": "from",
          "type": "address"
        },
        {
          "internalType": "address",
          "name": "to",
          "type": "address"
        },
        {
          "internalType": "uint256",
          "name": "tokenId",
          "type": "uint256"
        }
      ],
      "name": "safeTransferFrom",
      "outputs": [],
      "stateMutability": "nonpayable",
      "type": "function"
    },
    {
      "inputs": [
        {
          "internalType": "address",
          "name": "from",
          "type": "address"
        },
        {
          "internalType": "address",
          "name": "to",
          "type": "address"
        },
        {
          "internalType": "uint256",
          "name": "tokenId",
          "type": "uint256"
        },
        {
          "internalType": "bytes",
          "name": "data",
          "type": "bytes"
        }
      ],
      "name": "safeTransferFrom",
      "outputs": [],
      "stateMutability": "nonpayable",
      "type": "function"
    },
    {
      "inputs": [
        {
          "internalType": "address",
          "name": "operator",
          "type": "address"
        },
        {
          "internalType": "bool",
          "name": "approved",
          "type": "bool"
        }
      ],
      "name": "setApprovalForAll",
      "outputs": [],
      "stateMutability": "nonpayable",
      "type": "function"
    },
    {
      "inputs": [
        {
          "internalType": "bytes4",
          "name": "interfaceId",
          "type": "bytes4"
        }
      ],
      "name": "supportsInterface",
      "outputs": [
        {
          "internalType": "bool",
          "name": "",
          "type": "bool"
        }
      ],
      "stateMutability": "view",
      "type": "function"
    },
    {
      "inputs": [],
      "name": "symbol",
      "outputs": [
        {
          "internalType": "string",
          "name": "",
          "type": "string"
        }
      ],
      "stateMutability": "view",
      "type": "function"
    },
    {
      "inputs": [
        {
          "internalType": "uint256",
          "name": "tokenId",
          "type": "uint256"
        }
      ],
      "name": "tokenURI",
      "outputs": [
        {
          "internalType": "string",
          "name": "",
          "type": "string"
        }
      ],
      "stateMutability": "view",
      "type": "function"
    },
    {
      "inputs": [],
      "name": "totalSupply",
      "outputs": [
        {
          "internalType": "uint256",
          "name": "",
          "type": "uint256"
        }
      ],
      "stateMutability": "view",
      "type": "function"
    },
    {
      "inputs": [
        {
          "internalType": "address",
          "name": "from",
          "type": "address"
        },
        {
          "internalType": "address",
          "name": "to",
          "type": "address"
        },
        {
          "internalType": "uint256",
          "name": "tokenId",
          "type": "uint256"
        }
      ],
      "name": "transferFrom",
      "outputs": [],
      "stateMutability": "nonpayable",
      "type": "function"
    },
    {
      "inputs": [
        {
          "internalType": "address",
          "name": "newOwner",
          "type": "address"
        }
      ],
      "name": "transferOwnership",
      "outputs": [],
      "stateMutability": "nonpayable",
      "type": "function"
    }
  ],
  "bytecode": "0x60806040523480156200001157600080fd5b506040518060400160405280600c81526020017f50726f7065727479204e465400000000000000000000000000000000000000008152506040518060400160405280600481526020017f50524f500000000000000000000000000000000000000000000000000000000081525081600090816200008f919062000412565b508060019081620000a1919062000412565b505050620000c4620000b8620000ca60201b60201c565b620000d260201b60201c565b620004f9565b600033905090565b6000600660009054906101000a900473ffffffffffffffffffffffffffffffffffffffff16905081600660006101000a81548173ffffffffffffffffffffffffffffffffffffffff021916908373ffffffffffffffffffffffffffffffffffffffff1602179055508173ffffffffffffffffffffffffffffffffffffffff168173ffffffffffffffffffffffffffffffffffffffff167f8be0079c531659141344cd1fd0a4f28419497f9722a3daafe3b4186f6b6457e060405160405180910390a35050565b600081519050919050565b7f4e487b7100000000000000000000000000000000000000000000000000000000600052604160045260246000fd5b7f4e487b7100000000000000000000000000000000000000000000000000000000600052602260045260246000fd5b600060028204905060018216806200021a57607f821691505b60208210810362000230576200022f620001d2565b5b50919050565b60008190508160005260206000209050919050565b60006020601f8301049050919050565b600082821b905092915050565b6000600883026200029a7fffffffffffffffffffffffffffffffffffffffffffffffffffffffffffffffff826200025b565b620002a686836200025b565b95508019841693508086168417925050509392505050565b6000819050919050565b6000819050919050565b6000620002f3620002ed620002e784620002be565b620002c8565b620002be565b9050919050565b6000819050919050565b6200030f83620002d2565b620003276200031e82620002fa565b84845462000268565b825550505050565b600090565b6200033e6200032f565b6200034b81848462000304565b505050565b5b8181101562000373576200036760008262000334565b60018101905062000351565b5050565b601f821115620003c2576200038c8162000236565b62000397846200024b565b81016020851015620003a7578190505b620003bf620003b6856200024b565b83018262000350565b50505b505050565b600082821c905092915050565b6000620003e760001984600802620003c7565b1980831691505092915050565b6000620004028383620003d4565b9150826002028217905092915050565b6200041d8262000198565b67ffffffffffffffff811115620004395762000438620001a3565b5b62000445825462000201565b6200045282828562000377565b600060209050601f8311600181146200048a576000841562000475578287015190505b620004818582620003f4565b865550620004f1565b601f1984166200049a8662000236565b60005b82811015620004c4578489015182556001820191506020850194506020810190506200049d565b86831015620004e45784890151620004e0601f891682620003d4565b8355505b6001600288020188555050505b505050505050565b61346580620005096000396000f3fe608060405234801561001057600080fd5b506004361061012c5760003560e01c8063715018a6116100ad578063b88d4fde11610071578063b88d4fde14610348578063c87b56dd14610364578063e985e9c514610394578063f2fde38b146103c4578063f7b10808146103e05761012c565b8063715018a6146102b65780638da5cb5b146102c057806395d89b41146102de578063a22cb465146102fc578063b4b0cb25146103185761012c565b806318160ddd116100f457806318160ddd1461020057806323b872dd1461021e57806342842e0e1461023a5780636352211e1461025657806370a08231146102865761012c565b806301ffc9a71461013157806306fdde0314610161578063081812fc1461017f578063095ea7b3146101af578063126dbe43146101cb575b600080fd5b61014b600480360381019061014691906120b7565b610415565b60405161015891906120ff565b60405180910390f35b6101696104f7565b60405161017691906121aa565b60405180910390f35b61019960048036038101906101949190612202565b610589565b6040516101a69190612270565b60405180910390f35b6101c960048036038101906101c491906122b7565b6105cf565b005b6101e560048036038101906101e09190612202565b6106e6565b6040516101f796959493929190612306565b60405180910390f35b61020861093c565b604051610215919061237c565b60405180910390f35b61023860048036038101906102339190612397565b610946565b005b610254600480360381019061024f9190612397565b6109a6565b005b610270600480360381019061026b9190612202565b6109c6565b60405161027d9190612270565b60405180910390f35b6102a0600480360381019061029b91906123ea565b610a4c565b6040516102ad919061237c565b60405180910390f35b6102be610b03565b005b6102c8610b17565b6040516102d59190612270565b60405180910390f35b6102e6610b41565b6040516102f391906121aa565b60405180910390f35b61031660048036038101906103119190612443565b610bd3565b005b610332600480360381019061032d91906125b8565b610be9565b60405161033f919061237c565b60405180910390f35b610362600480360381019061035d919061273a565b610d64565b005b61037e60048036038101906103799190612202565b610dc6565b60405161038b91906121aa565b60405180910390f35b6103ae60048036038101906103a991906127bd565b610e2e565b6040516103bb91906120ff565b60405180910390f35b6103de60048036038101906103d991906123ea565b610ec2565b005b6103fa60048036038101906103f59190612202565b610f45565b60405161040c96959493929190612306565b60405180910390f35b60007f80ac58cd000000000000000000000000000000000000000000000000000000007bffffffffffffffffffffffffffffffffffffffffffffffffffffffff1916827bffffffffffffffffffffffffffffffffffffffffffffffffffffffff191614806104e057507f5b5e139f000000000000000000000000000000000000000000000000000000007bffffffffffffffffffffffffffffffffffffffffffffffffffffffff1916827bffffffffffffffffffffffffffffffffffffffffffffffffffffffff1916145b806104f057506104ef82611139565b5b9050919050565b6060600080546105069061282c565b80601f01602080910402602001604051908101604052809291908181526020018280546105329061282c565b801561057f5780601f106105545761010080835404028352916020019161057f565b820191906000526020600020905b81548152906001019060200180831161056257829003601f168201915b5050505050905090565b6000610594826111a3565b6004600083815260200190815260200160002060009054906101000a900473ffffffffffffffffffffffffffffffffffffffff169050919050565b60006105da826109c6565b90508073ffffffffffffffffffffffffffffffffffffffff168373ffffffffffffffffffffffffffffffffffffffff160361064a576040517f08c379a0000000000000000000000000000000000000000000000000000000008152600401610641906128cf565b60405180910390fd5b8073ffffffffffffffffffffffffffffffffffffffff166106696111ee565b73ffffffffffffffffffffffffffffffffffffffff1614806106985750610697816106926111ee565b610e2e565b5b6106d7576040517f08c379a00000000000000000000000000000000000000000000000000000000081526004016106ce90612961565b60405180910390fd5b6106e183836111f6565b505050565b60606000606060008060606106fa876112af565b610739576040517f08c379a0000000000000000000000000000000000000000000000000000000008152600401610730906129cd565b60405180910390fd5b600060076000898152602001908152602001600020905080600001805461075f9061282c565b80601f016020809104026020016040519081016040528092919081815260200182805461078b9061282c565b80156107d85780601f106107ad576101008083540402835291602001916107d8565b820191906000526020600020905b8154815290600101906020018083116107bb57829003601f168201915b505050505096508060010160009054906101000a900473ffffffffffffffffffffffffffffffffffffffff1695508060020180546108159061282c565b80601f01602080910402602001604051908101604052809291908181526020018280546108419061282c565b801561088e5780601f106108635761010080835404028352916020019161088e565b820191906000526020600020905b81548152906001019060200180831161087157829003601f168201915b5050505050945080600301549350806004015492508060050180546108b29061282c565b80601f01602080910402602001604051908101604052809291908181526020018280546108de9061282c565b801561092b5780601f106109005761010080835404028352916020019161092b565b820191906000526020600020905b81548152906001019060200180831161090e57829003601f168201915b505050505091505091939550919395565b6000600854905090565b6109576109516111ee565b826112f0565b610996576040517f08c379a000000000000000000000000000000000000000000000000000000000815260040161098d90612a5f565b60405180910390fd5b6109a1838383611385565b505050565b6109c183838360405180602001604052806000815250610d64565b505050565b6000806109d28361167e565b9050600073ffffffffffffffffffffffffffffffffffffffff168173ffffffffffffffffffffffffffffffffffffffff1603610a43576040517f08c379a0000000000000000000000000000000000000000000000000000000008152600401610a3a90612acb565b60405180910390fd5b80915050919050565b60008073ffffffffffffffffffffffffffffffffffffffff168273ffffffffffffffffffffffffffffffffffffffff1603610abc576040517f08c379a0000000000000000000000000000000000000000000000000000000008152600401610ab390612b5d565b60405180910390fd5b600360008373ffffffffffffffffffffffffffffffffffffffff1673ffffffffffffffffffffffffffffffffffffffff168152602001908152602001600020549050919050565b610b0b6116bb565b610b156000611739565b565b6000600660009054906101000a900473ffffffffffffffffffffffffffffffffffffffff16905090565b606060018054610b509061282c565b80601f0160208091040260200160405190810160405280929190818152602001828054610b7c9061282c565b8015610bc95780601f10610b9e57610100808354040283529160200191610bc9565b820191906000526020600020905b815481529060010190602001808311610bac57829003601f168201915b5050505050905090565b610be5610bde6111ee565b83836117ff565b5050565b6000610bf36116bb565b60086000815480929190610c0690612bac565b91905055506000600854905060006040518060c001604052808a81526020018973ffffffffffffffffffffffffffffffffffffffff16815260200188815260200187815260200186815260200185815250905080600760008481526020019081526020016000206000820151816000019081610c829190612da0565b5060208201518160010160006101000a81548173ffffffffffffffffffffffffffffffffffffffff021916908373ffffffffffffffffffffffffffffffffffffffff1602179055506040820151816002019081610cdf9190612da0565b50606082015181600301556080820151816004015560a0820151816005019081610d099190612da0565b50905050610d17888361196b565b817f0ff12adb3e1f5cf8f4c5dbc5e7741f4e1ea4b3acfb158f7b5ff3167919e866448a898989604051610d4d9493929190612e72565b60405180910390a281925050509695505050505050565b610d75610d6f6111ee565b836112f0565b610db4576040517f08c379a0000000000000000000000000000000000000000000000000000000008152600401610dab90612a5f565b60405180910390fd5b610dc084848484611989565b50505050565b6060610dd1826111a3565b6000610ddb6119e5565b90506000815111610dfb5760405180602001604052806000815250610e26565b80610e05846119fc565b604051602001610e16929190612f01565b6040516020818303038152906040525b915050919050565b6000600560008473ffffffffffffffffffffffffffffffffffffffff1673ffffffffffffffffffffffffffffffffffffffff16815260200190815260200160002060008373ffffffffffffffffffffffffffffffffffffffff1673ffffffffffffffffffffffffffffffffffffffff16815260200190815260200160002060009054906101000a900460ff16905092915050565b610eca6116bb565b600073ffffffffffffffffffffffffffffffffffffffff168173ffffffffffffffffffffffffffffffffffffffff1603610f39576040517f08c379a0000000000000000000000000000000000000000000000000000000008152600401610f3090612f97565b60405180910390fd5b610f4281611739565b50565b6007602052806000526040600020600091509050806000018054610f689061282c565b80601f0160208091040260200160405190810160405280929190818152602001828054610f949061282c565b8015610fe15780601f10610fb657610100808354040283529160200191610fe1565b820191906000526020600020905b815481529060010190602001808311610fc457829003601f168201915b5050505050908060010160009054906101000a900473ffffffffffffffffffffffffffffffffffffffff169080600201805461101c9061282c565b80601f01602080910402602001604051908101604052809291908181526020018280546110489061282c565b80156110955780601f1061106a57610100808354040283529160200191611095565b820191906000526020600020905b81548152906001019060200180831161107857829003601f168201915b5050505050908060030154908060040154908060050180546110b69061282c565b80601f01602080910402602001604051908101604052809291908181526020018280546110e29061282c565b801561112f5780601f106111045761010080835404028352916020019161112f565b820191906000526020600020905b81548152906001019060200180831161111257829003601f168201915b5050505050905086565b60007f01ffc9a7000000000000000000000000000000000000000000000000000000007bffffffffffffffffffffffffffffffffffffffffffffffffffffffff1916827bffffffffffffffffffffffffffffffffffffffffffffffffffffffff1916149050919050565b6111ac816112af565b6111eb576040517f08c379a00000000000000000000000000000000000000000000000000000000081526004016111e290612acb565b60405180910390fd5b50565b600033905090565b816004600083815260200190815260200160002060006101000a81548173ffffffffffffffffffffffffffffffffffffffff021916908373ffffffffffffffffffffffffffffffffffffffff160217905550808273ffffffffffffffffffffffffffffffffffffffff16611269836109c6565b73ffffffffffffffffffffffffffffffffffffffff167f8c5be1e5ebec7d5bd14f71427d1e84f3dd0314c0f7b2291e5b200ac8c7c3b92560405160405180910390a45050565b60008073ffffffffffffffffffffffffffffffffffffffff166112d18361167e565b73ffffffffffffffffffffffffffffffffffffffff1614159050919050565b6000806112fc836109c6565b90508073ffffffffffffffffffffffffffffffffffffffff168473ffffffffffffffffffffffffffffffffffffffff16148061133e575061133d8185610e2e565b5b8061137c57508373ffffffffffffffffffffffffffffffffffffffff1661136484610589565b73ffffffffffffffffffffffffffffffffffffffff16145b91505092915050565b8273ffffffffffffffffffffffffffffffffffffffff166113a5826109c6565b73ffffffffffffffffffffffffffffffffffffffff16146113fb576040517f08c379a00000000000000000000000000000000000000000000000000000000081526004016113f290613029565b60405180910390fd5b600073ffffffffffffffffffffffffffffffffffffffff168273ffffffffffffffffffffffffffffffffffffffff160361146a576040517f08c379a0000000000000000000000000000000000000000000000000000000008152600401611461906130bb565b60405180910390fd5b6114778383836001611aca565b8273ffffffffffffffffffffffffffffffffffffffff16611497826109c6565b73ffffffffffffffffffffffffffffffffffffffff16146114ed576040517f08c379a00000000000000000000000000000000000000000000000000000000081526004016114e490613029565b60405180910390fd5b6004600082815260200190815260200160002060006101000a81549073ffffffffffffffffffffffffffffffffffffffff02191690556001600360008573ffffffffffffffffffffffffffffffffffffffff1673ffffffffffffffffffffffffffffffffffffffff168152602001908152602001600020600082825403925050819055506001600360008473ffffffffffffffffffffffffffffffffffffffff1673ffffffffffffffffffffffffffffffffffffffff16815260200190815260200160002060008282540192505081905550816002600083815260200190815260200160002060006101000a81548173ffffffffffffffffffffffffffffffffffffffff021916908373ffffffffffffffffffffffffffffffffffffffff160217905550808273ffffffffffffffffffffffffffffffffffffffff168473ffffffffffffffffffffffffffffffffffffffff167fddf252ad1be2c89b69c2b068fc378daa952ba7f163c4a11628f55a4df523b3ef60405160405180910390a46116798383836001611ad0565b505050565b60006002600083815260200190815260200160002060009054906101000a900473ffffffffffffffffffffffffffffffffffffffff169050919050565b6116c36111ee565b73ffffffffffffffffffffffffffffffffffffffff166116e1610b17565b73ffffffffffffffffffffffffffffffffffffffff1614611737576040517f08c379a000000000000000000000000000000000000000000000000000000000815260040161172e90613127565b60405180910390fd5b565b6000600660009054906101000a900473ffffffffffffffffffffffffffffffffffffffff16905081600660006101000a81548173ffffffffffffffffffffffffffffffffffffffff021916908373ffffffffffffffffffffffffffffffffffffffff1602179055508173ffffffffffffffffffffffffffffffffffffffff168173ffffffffffffffffffffffffffffffffffffffff167f8be0079c531659141344cd1fd0a4f28419497f9722a3daafe3b4186f6b6457e060405160405180910390a35050565b8173ffffffffffffffffffffffffffffffffffffffff168373ffffffffffffffffffffffffffffffffffffffff160361186d576040517f08c379a000000000000000000000000000000000000000000000000000000000815260040161186490613193565b60405180910390fd5b80600560008573ffffffffffffffffffffffffffffffffffffffff1673ffffffffffffffffffffffffffffffffffffffff16815260200190815260200160002060008473ffffffffffffffffffffffffffffffffffffffff1673ffffffffffffffffffffffffffffffffffffffff16815260200190815260200160002060006101000a81548160ff0219169083151502179055508173ffffffffffffffffffffffffffffffffffffffff168373ffffffffffffffffffffffffffffffffffffffff167f17307eab39ab6107e8899845ad3d59bd9653f200f220920489ca2b5937696c318360405161195e91906120ff565b60405180910390a3505050565b611985828260405180602001604052806000815250611ad6565b5050565b611994848484611385565b6119a084848484611b31565b6119df576040517f08c379a00000000000000000000000000000000000000000000000000000000081526004016119d690613225565b60405180910390fd5b50505050565b606060405180602001604052806000815250905090565b606060006001611a0b84611cb8565b01905060008167ffffffffffffffff811115611a2a57611a2961248d565b5b6040519080825280601f01601f191660200182016040528015611a5c5781602001600182028036833780820191505090505b509050600082602001820190505b600115611abf578080600190039150507f3031323334353637383961626364656600000000000000000000000000000000600a86061a8153600a8581611ab357611ab2613245565b5b04945060008503611a6a575b819350505050919050565b50505050565b50505050565b611ae08383611e0b565b611aed6000848484611b31565b611b2c576040517f08c379a0000000000000000000000000000000000000000000000000000000008152600401611b2390613225565b60405180910390fd5b505050565b6000611b528473ffffffffffffffffffffffffffffffffffffffff16612028565b15611cab578373ffffffffffffffffffffffffffffffffffffffff1663150b7a02611b7b6111ee565b8786866040518563ffffffff1660e01b8152600401611b9d94939291906132c9565b6020604051808303816000875af1925050508015611bd957506040513d601f19601f82011682018060405250810190611bd6919061332a565b60015b611c5b573d8060008114611c09576040519150601f19603f3d011682016040523d82523d6000602084013e611c0e565b606091505b506000815103611c53576040517f08c379a0000000000000000000000000000000000000000000000000000000008152600401611c4a90613225565b60405180910390fd5b805181602001fd5b63150b7a0260e01b7bffffffffffffffffffffffffffffffffffffffffffffffffffffffff1916817bffffffffffffffffffffffffffffffffffffffffffffffffffffffff191614915050611cb0565b600190505b949350505050565b600080600090507a184f03e93ff9f4daa797ed6e38ed64bf6a1f0100000000000000008310611d16577a184f03e93ff9f4daa797ed6e38ed64bf6a1f0100000000000000008381611d0c57611d0b613245565b5b0492506040810190505b6d04ee2d6d415b85acef81000000008310611d53576d04ee2d6d415b85acef81000000008381611d4957611d48613245565b5b0492506020810190505b662386f26fc100008310611d8257662386f26fc100008381611d7857611d77613245565b5b0492506010810190505b6305f5e1008310611dab576305f5e1008381611da157611da0613245565b5b0492506008810190505b6127108310611dd0576127108381611dc657611dc5613245565b5b0492506004810190505b60648310611df35760648381611de957611de8613245565b5b0492506002810190505b600a8310611e02576001810190505b80915050919050565b600073ffffffffffffffffffffffffffffffffffffffff168273ffffffffffffffffffffffffffffffffffffffff1603611e7a576040517f08c379a0000000000000000000000000000000000000000000000000000000008152600401611e71906133a3565b60405180910390fd5b611e83816112af565b15611ec3576040517f08c379a0000000000000000000000000000000000000000000000000000000008152600401611eba9061340f565b60405180910390fd5b611ed1600083836001611aca565b611eda816112af565b15611f1a576040517f08c379a0000000000000000000000000000000000000000000000000000000008152600401611f119061340f565b60405180910390fd5b6001600360008473ffffffffffffffffffffffffffffffffffffffff1673ffffffffffffffffffffffffffffffffffffffff16815260200190815260200160002060008282540192505081905550816002600083815260200190815260200160002060006101000a81548173ffffffffffffffffffffffffffffffffffffffff021916908373ffffffffffffffffffffffffffffffffffffffff160217905550808273ffffffffffffffffffffffffffffffffffffffff16600073ffffffffffffffffffffffffffffffffffffffff167fddf252ad1be2c89b69c2b068fc378daa952ba7f163c4a11628f55a4df523b3ef60405160405180910390a4612024600083836001611ad0565b5050565b6000808273ffffffffffffffffffffffffffffffffffffffff163b119050919050565b6000604051905090565b600080fd5b600080fd5b60007fffffffff0000000000000000000000000000000000000000000000000000000082169050919050565b6120948161205f565b811461209f57600080fd5b50565b6000813590506120b18161208b565b92915050565b6000602082840312156120cd576120cc612055565b5b60006120db848285016120a2565b91505092915050565b60008115159050919050565b6120f9816120e4565b82525050565b600060208201905061211460008301846120f0565b92915050565b600081519050919050565b600082825260208201905092915050565b60005b83811015612154578082015181840152602081019050612139565b60008484015250505050565b6000601f19601f8301169050919050565b600061217c8261211a565b6121868185612125565b9350612196818560208601612136565b61219f81612160565b840191505092915050565b600060208201905081810360008301526121c48184612171565b905092915050565b6000819050919050565b6121df816121cc565b81146121ea57600080fd5b50565b6000813590506121fc816121d6565b92915050565b60006020828403121561221857612217612055565b5b6000612226848285016121ed565b91505092915050565b600073ffffffffffffffffffffffffffffffffffffffff82169050919050565b600061225a8261222f565b9050919050565b61226a8161224f565b82525050565b60006020820190506122856000830184612261565b92915050565b6122948161224f565b811461229f57600080fd5b50565b6000813590506122b18161228b565b92915050565b600080604083850312156122ce576122cd612055565b5b60006122dc858286016122a2565b92505060206122ed858286016121ed565b9150509250929050565b612300816121cc565b82525050565b600060c08201905081810360008301526123208189612171565b905061232f6020830188612261565b81810360408301526123418187612171565b905061235060608301866122f7565b61235d60808301856122f7565b81810360a083015261236f8184612171565b9050979650505050505050565b600060208201905061239160008301846122f7565b92915050565b6000806000606084860312156123b0576123af612055565b5b60006123be868287016122a2565b93505060206123cf868287016122a2565b92505060406123e0868287016121ed565b9150509250925092565b600060208284031215612400576123ff612055565b5b600061240e848285016122a2565b91505092915050565b612420816120e4565b811461242b57600080fd5b50565b60008135905061243d81612417565b92915050565b6000806040838503121561245a57612459612055565b5b6000612468858286016122a2565b92505060206124798582860161242e565b9150509250929050565b600080fd5b600080fd5b7f4e487b7100000000000000000000000000000000000000000000000000000000600052604160045260246000fd5b6124c582612160565b810181811067ffffffffffffffff821117156124e4576124e361248d565b5b80604052505050565b60006124f761204b565b905061250382826124bc565b919050565b600067ffffffffffffffff8211156125235761252261248d565b5b61252c82612160565b9050602081019050919050565b82818337600083830152505050565b600061255b61255684612508565b6124ed565b90508281526020810184848401111561257757612576612488565b5b612582848285612539565b509392505050565b600082601f83011261259f5761259e612483565b5b81356125af848260208601612548565b91505092915050565b60008060008060008060c087890312156125d5576125d4612055565b5b600087013567ffffffffffffffff8111156125f3576125f261205a565b5b6125ff89828a0161258a565b965050602061261089828a016122a2565b955050604087013567ffffffffffffffff8111156126315761263061205a565b5b61263d89828a0161258a565b945050606061264e89828a016121ed565b935050608061265f89828a016121ed565b92505060a087013567ffffffffffffffff8111156126805761267f61205a565b5b61268c89828a0161258a565b9150509295509295509295565b600067ffffffffffffffff8211156126b4576126b361248d565b5b6126bd82612160565b9050602081019050919050565b60006126dd6126d884612699565b6124ed565b9050828152602081018484840111156126f9576126f8612488565b5b612704848285612539565b509392505050565b600082601f83011261272157612720612483565b5b81356127318482602086016126ca565b91505092915050565b6000806000806080858703121561275457612753612055565b5b6000612762878288016122a2565b9450506020612773878288016122a2565b9350506040612784878288016121ed565b925050606085013567ffffffffffffffff8111156127a5576127a461205a565b5b6127b18782880161270c565b91505092959194509250565b600080604083850312156127d4576127d3612055565b5b60006127e2858286016122a2565b92505060206127f3858286016122a2565b9150509250929050565b7f4e487b7100000000000000000000000000000000000000000000000000000000600052602260045260246000fd5b6000600282049050600182168061284457607f821691505b602082108103612857576128566127fd565b5b50919050565b7f4552433732313a20617070726f76616c20746f2063757272656e74206f776e6560008201527f7200000000000000000000000000000000000000000000000000000000000000602082015250565b60006128b9602183612125565b91506128c48261285d565b604082019050919050565b600060208201905081810360008301526128e8816128ac565b9050919050565b7f4552433732313a20617070726f76652063616c6c6572206973206e6f7420746f60008201527f6b656e206f776e6572206f7220617070726f76656420666f7220616c6c000000602082015250565b600061294b603d83612125565b9150612956826128ef565b604082019050919050565b6000602082019050818103600083015261297a8161293e565b9050919050565b7f50726f706572747920646f6573206e6f74206578697374000000000000000000600082015250565b60006129b7601783612125565b91506129c282612981565b602082019050919050565b600060208201905081810360008301526129e6816129aa565b9050919050565b7f4552433732313a2063616c6c6572206973206e6f7420746f6b656e206f776e6560008201527f72206f7220617070726f76656400000000000000000000000000000000000000602082015250565b6000612a49602d83612125565b9150612a54826129ed565b604082019050919050565b60006020820190508181036000830152612a7881612a3c565b9050919050565b7f4552433732313a20696e76616c696420746f6b656e2049440000000000000000600082015250565b6000612ab5601883612125565b9150612ac082612a7f565b602082019050919050565b60006020820190508181036000830152612ae481612aa8565b9050919050565b7f4552433732313a2061646472657373207a65726f206973206e6f74206120766160008201527f6c6964206f776e65720000000000000000000000000000000000000000000000602082015250565b6000612b47602983612125565b9150612b5282612aeb565b604082019050919050565b60006020820190508181036000830152612b7681612b3a565b9050919050565b7f4e487b7100000000000000000000000000000000000000000000000000000000600052601160045260246000fd5b6000612bb7826121cc565b91507fffffffffffffffffffffffffffffffffffffffffffffffffffffffffffffffff8203612be957612be8612b7d565b5b600182019050919050565b60008190508160005260206000209050919050565b60006020601f8301049050919050565b600082821b905092915050565b600060088302612c567fffffffffffffffffffffffffffffffffffffffffffffffffffffffffffffffff82612c19565b612c608683612c19565b95508019841693508086168417925050509392505050565b6000819050919050565b6000612c9d612c98612c93846121cc565b612c78565b6121cc565b9050919050565b6000819050919050565b612cb783612c82565b612ccb612cc382612ca4565b848454612c26565b825550505050565b600090565b612ce0612cd3565b612ceb818484612cae565b505050565b5b81811015612d0f57612d04600082612cd8565b600181019050612cf1565b5050565b601f821115612d5457612d2581612bf4565b612d2e84612c09565b81016020851015612d3d578190505b612d51612d4985612c09565b830182612cf0565b50505b505050565b600082821c905092915050565b6000612d7760001984600802612d59565b1980831691505092915050565b6000612d908383612d66565b9150826002028217905092915050565b612da98261211a565b67ffffffffffffffff811115612dc257612dc161248d565b5b612dcc825461282c565b612dd7828285612d13565b600060209050601f831160018114612e0a5760008415612df8578287015190505b612e028582612d84565b865550612e6a565b601f198416612e1886612bf4565b60005b82811015612e4057848901518255600182019150602085019450602081019050612e1b565b86831015612e5d5784890151612e59601f891682612d66565b8355505b6001600288020188555050505b505050505050565b60006080820190508181036000830152612e8c8187612171565b90508181036020830152612ea08186612171565b9050612eaf60408301856122f7565b612ebc60608301846122f7565b95945050505050565b600081905092915050565b6000612edb8261211a565b612ee58185612ec5565b9350612ef5818560208601612136565b80840191505092915050565b6000612f0d8285612ed0565b9150612f198284612ed0565b91508190509392505050565b7f4f776e61626c653a206e6577206f776e657220697320746865207a65726f206160008201527f6464726573730000000000000000000000000000000000000000000000000000602082015250565b6000612f81602683612125565b9150612f8c82612f25565b604082019050919050565b60006020820190508181036000830152612fb081612f74565b9050919050565b7f4552433732313a207472616e736665722066726f6d20696e636f72726563742060008201527f6f776e6572000000000000000000000000000000000000000000000000000000602082015250565b6000613013602583612125565b915061301e82612fb7565b604082019050919050565b6000602082019050818103600083015261304281613006565b9050919050565b7f4552433732313a207472616e7366657220746f20746865207a65726f2061646460008201527f7265737300000000000000000000000000000000000000000000000000000000602082015250565b60006130a5602483612125565b91506130b082613049565b604082019050919050565b600060208201905081810360008301526130d481613098565b9050919050565b7f4f776e61626c653a2063616c6c6572206973206e6f7420746865206f776e6572600082015250565b6000613111602083612125565b915061311c826130db565b602082019050919050565b6000602082019050818103600083015261314081613104565b9050919050565b7f4552433732313a20617070726f766520746f2063616c6c657200000000000000600082015250565b600061317d601983612125565b915061318882613147565b602082019050919050565b600060208201905081810360008301526131ac81613170565b9050919050565b7f4552433732313a207472616e7366657220746f206e6f6e20455243373231526560008201527f63656976657220696d706c656d656e7465720000000000000000000000000000602082015250565b600061320f603283612125565b915061321a826131b3565b604082019050919050565b6000602082019050818103600083015261323e81613202565b9050919050565b7f4e487b7100000000000000000000000000000000000000000000000000000000600052601260045260246000fd5b600081519050919050565b600082825260208201905092915050565b600061329b82613274565b6132a5818561327f565b93506132b5818560208601612136565b6132be81612160565b840191505092915050565b60006080820190506132de6000830187612261565b6132eb6020830186612261565b6132f860408301856122f7565b818103606083015261330a8184613290565b905095945050505050565b6000815190506133248161208b565b92915050565b6000602082840312156133405761333f612055565b5b600061334e84828501613315565b91505092915050565b7f4552433732313a206d696e7420746f20746865207a65726f2061646472657373600082015250565b600061338d602083612125565b915061339882613357565b602082019050919050565b600060208201905081810360008301526133bc81613380565b9050919050565b7f4552433732313a20746f6b656e20616c7265616479206d696e74656400000000600082015250565b60006133f9601c83612125565b9150613404826133c3565b602082019050919050565b60006020820190508181036000830152613428816133ec565b905091905056fea264697066735822122050cea3f72e8da83c563a89931bcf9eeb1610e0b93fba03e07013f37f38669aba64736f6c63430008120033",
  "linkReferences": {},
  "deployedLinkReferences": {}
}